{
  "contractName": "GrantRegistry",
  "abi": [
    {
      "inputs": [
        {
          "internalType": "address",
          "name": "_owner",
          "type": "address"
        },
        {
          "internalType": "bytes32",
          "name": "_grantRegistryId",
          "type": "bytes32"
        },
        {
          "internalType": "string",
          "name": "_metaPtr",
          "type": "string"
        }
      ],
      "stateMutability": "nonpayable",
      "type": "constructor"
    },
    {
      "anonymous": false,
      "inputs": [
        {
          "indexed": true,
          "internalType": "bytes32",
          "name": "_id",
          "type": "bytes32"
        },
        {
          "indexed": true,
          "internalType": "address",
          "name": "_owner",
          "type": "address"
        },
        {
          "indexed": true,
          "internalType": "address",
          "name": "_payout",
          "type": "address"
        },
        {
          "indexed": false,
          "internalType": "bytes32",
          "name": "_replaces",
          "type": "bytes32"
        }
      ],
      "name": "NewGrant",
      "type": "event"
    },
    {
      "inputs": [],
      "name": "grantCount",
      "outputs": [
        {
          "internalType": "uint256",
          "name": "",
          "type": "uint256"
        }
      ],
      "stateMutability": "view",
      "type": "function",
      "constant": true
    },
    {
      "inputs": [
        {
          "internalType": "uint256",
          "name": "",
          "type": "uint256"
        }
      ],
      "name": "grantIds",
      "outputs": [
        {
          "internalType": "bytes32",
          "name": "",
          "type": "bytes32"
        }
      ],
      "stateMutability": "view",
      "type": "function",
      "constant": true
    },
    {
      "inputs": [],
      "name": "grantRegistryId",
      "outputs": [
        {
          "internalType": "bytes32",
          "name": "",
          "type": "bytes32"
        }
      ],
      "stateMutability": "view",
      "type": "function",
      "constant": true
    },
    {
      "inputs": [
        {
          "internalType": "bytes32",
          "name": "",
          "type": "bytes32"
        }
      ],
      "name": "grants",
      "outputs": [
        {
          "internalType": "bytes32",
          "name": "id",
          "type": "bytes32"
        },
        {
          "internalType": "address",
          "name": "owner",
          "type": "address"
        },
        {
          "internalType": "address",
          "name": "payout",
          "type": "address"
        },
        {
          "internalType": "string",
          "name": "metaPtr",
          "type": "string"
        },
        {
          "internalType": "enum GrantRegistry.State",
          "name": "state",
          "type": "uint8"
        },
        {
          "internalType": "bytes32",
          "name": "replaces",
          "type": "bytes32"
        }
      ],
      "stateMutability": "view",
      "type": "function",
      "constant": true
    },
    {
      "inputs": [],
      "name": "metaPtr",
      "outputs": [
        {
          "internalType": "string",
          "name": "",
          "type": "string"
        }
      ],
      "stateMutability": "view",
      "type": "function",
      "constant": true
    },
    {
      "inputs": [
        {
          "internalType": "bytes32",
          "name": "_id",
          "type": "bytes32"
        }
      ],
      "name": "activate",
      "outputs": [],
      "stateMutability": "nonpayable",
      "type": "function"
    },
    {
      "inputs": [
        {
          "internalType": "bytes32",
          "name": "_id",
          "type": "bytes32"
        }
      ],
      "name": "closed",
      "outputs": [],
      "stateMutability": "nonpayable",
      "type": "function"
    },
    {
      "inputs": [
        {
          "internalType": "bytes32",
          "name": "_id",
          "type": "bytes32"
        }
      ],
      "name": "isConfig",
      "outputs": [
        {
          "internalType": "bool",
          "name": "",
          "type": "bool"
        }
      ],
      "stateMutability": "view",
      "type": "function",
      "constant": true
    },
    {
      "inputs": [
        {
          "internalType": "bytes32",
          "name": "_id",
          "type": "bytes32"
        }
      ],
      "name": "isActive",
      "outputs": [
        {
          "internalType": "bool",
          "name": "",
          "type": "bool"
        }
      ],
      "stateMutability": "view",
      "type": "function",
      "constant": true
    },
    {
      "inputs": [
        {
          "internalType": "bytes32",
          "name": "_id",
          "type": "bytes32"
        }
      ],
      "name": "isClosed",
      "outputs": [
        {
          "internalType": "bool",
          "name": "",
          "type": "bool"
        }
      ],
      "stateMutability": "view",
      "type": "function",
      "constant": true
    },
    {
      "inputs": [],
      "name": "getGrantCount",
      "outputs": [
        {
          "internalType": "uint256",
          "name": "",
          "type": "uint256"
        }
      ],
      "stateMutability": "view",
      "type": "function",
      "constant": true
    },
    {
      "inputs": [],
      "name": "getAllGrantIds",
      "outputs": [
        {
          "internalType": "bytes32[]",
          "name": "",
          "type": "bytes32[]"
        }
      ],
      "stateMutability": "view",
      "type": "function",
      "constant": true
    },
    {
      "inputs": [],
      "name": "getAllGrants",
      "outputs": [
        {
          "components": [
            {
              "internalType": "bytes32",
              "name": "id",
              "type": "bytes32"
            },
            {
              "internalType": "address",
              "name": "owner",
              "type": "address"
            },
            {
              "internalType": "address",
              "name": "payout",
              "type": "address"
            },
            {
              "internalType": "string",
              "name": "metaPtr",
              "type": "string"
            },
            {
              "internalType": "enum GrantRegistry.State",
              "name": "state",
              "type": "uint8"
            },
            {
              "internalType": "bytes32",
              "name": "replaces",
              "type": "bytes32"
            }
          ],
          "internalType": "struct GrantRegistry.Grant[]",
          "name": "",
          "type": "tuple[]"
        }
      ],
      "stateMutability": "view",
      "type": "function",
      "constant": true
    },
    {
      "inputs": [
        {
          "internalType": "bytes32",
          "name": "_id",
          "type": "bytes32"
        },
        {
          "internalType": "address",
          "name": "_owner",
          "type": "address"
        },
        {
          "internalType": "address",
          "name": "_payout",
          "type": "address"
        },
        {
          "internalType": "string",
          "name": "_metaPtr",
          "type": "string"
        },
        {
          "internalType": "enum GrantRegistry.State",
          "name": "_state",
          "type": "uint8"
        },
        {
          "internalType": "bytes32",
          "name": "_replaces",
          "type": "bytes32"
        }
      ],
      "name": "_mint",
      "outputs": [],
      "stateMutability": "nonpayable",
      "type": "function"
    }
  ],
  "bytecode": "0x608060405260006003553480156200001657600080fd5b5060405162001e3f38038062001e3f83398181016040528101906200003c9190620001f6565b82600260006101000a81548173ffffffffffffffffffffffffffffffffffffffff021916908373ffffffffffffffffffffffffffffffffffffffff1602179055508160008190555080600190805190602001906200009c929190620000a6565b5050505062000447565b828054620000b49062000338565b90600052602060002090601f016020900481019282620000d8576000855562000124565b82601f10620000f357805160ff191683800117855562000124565b8280016001018555821562000124579182015b828111156200012357825182559160200191906001019062000106565b5b50905062000133919062000137565b5090565b5b808211156200015257600081600090555060010162000138565b5090565b60006200016d62000167846200028e565b62000265565b9050828152602081018484840111156200018657600080fd5b6200019384828562000302565b509392505050565b600081519050620001ac8162000413565b92915050565b600081519050620001c3816200042d565b92915050565b600082601f830112620001db57600080fd5b8151620001ed84826020860162000156565b91505092915050565b6000806000606084860312156200020c57600080fd5b60006200021c868287016200019b565b93505060206200022f86828701620001b2565b925050604084015167ffffffffffffffff8111156200024d57600080fd5b6200025b86828701620001c9565b9150509250925092565b60006200027162000284565b90506200027f82826200036e565b919050565b6000604051905090565b600067ffffffffffffffff821115620002ac57620002ab620003d3565b5b620002b78262000402565b9050602081019050919050565b6000620002d182620002e2565b9050919050565b6000819050919050565b600073ffffffffffffffffffffffffffffffffffffffff82169050919050565b60005b838110156200032257808201518184015260208101905062000305565b8381111562000332576000848401525b50505050565b600060028204905060018216806200035157607f821691505b60208210811415620003685762000367620003a4565b5b50919050565b620003798262000402565b810181811067ffffffffffffffff821117156200039b576200039a620003d3565b5b80604052505050565b7f4e487b7100000000000000000000000000000000000000000000000000000000600052602260045260246000fd5b7f4e487b7100000000000000000000000000000000000000000000000000000000600052604160045260246000fd5b6000601f19601f8301169050919050565b6200041e81620002c4565b81146200042a57600080fd5b50565b6200043881620002d8565b81146200044457600080fd5b50565b6119e880620004576000396000f3fe608060405234801561001057600080fd5b50600436106100ea5760003560e01c806394e90e691161008c578063d0e363cb11610066578063d0e363cb1461025d578063de1f89801461027b578063e1ea26d0146102b0578063fecfe771146102ce576100ea565b806394e90e69146101f357806395eb34f414610223578063cab426721461023f576100ea565b806359db6e85116100c857806359db6e851461016b5780635c36901c1461018757806376ea3e76146101b75780637c1b6afe146101d5576100ea565b80633986624c146100ef5780633fb8c56d1461011f57806340aa1f401461013b575b600080fd5b61010960048036038101906101049190611212565b6102ec565b604051610116919061150c565b60405180910390f35b61013960048036038101906101349190611148565b610310565b005b61015560048036038101906101509190611148565b6103d2565b60405161016291906114f1565b60405180910390f35b61018560048036038101906101809190611148565b610471565b005b6101a1600480360381019061019c9190611148565b610533565b6040516101ae91906114f1565b60405180910390f35b6101bf6105d3565b6040516101cc919061150c565b60405180910390f35b6101dd6105d9565b6040516101ea91906115b1565b60405180910390f35b61020d60048036038101906102089190611148565b6105e3565b60405161021a91906114f1565b60405180910390f35b61023d60048036038101906102389190611171565b610682565b005b6102476108dd565b60405161025491906115b1565b60405180910390f35b6102656108e3565b604051610272919061158f565b60405180910390f35b61029560048036038101906102909190611148565b610971565b6040516102a796959493929190611527565b60405180910390f35b6102b8610a82565b6040516102c591906114ad565b60405180910390f35b6102d6610bfb565b6040516102e391906114cf565b60405180910390f35b600581815481106102fc57600080fd5b906000526020600020016000915090505481565b600260009054906101000a900473ffffffffffffffffffffffffffffffffffffffff1673ffffffffffffffffffffffffffffffffffffffff163373ffffffffffffffffffffffffffffffffffffffff161461036a57600080fd5b60026004600083815260200190815260200160002060040160006101000a81548160ff021916908360028111156103ca577f4e487b7100000000000000000000000000000000000000000000000000000000600052602160045260246000fd5b021790555050565b600060028081111561040d577f4e487b7100000000000000000000000000000000000000000000000000000000600052602160045260246000fd5b6004600084815260200190815260200160002060040160009054906101000a900460ff166002811115610469577f4e487b7100000000000000000000000000000000000000000000000000000000600052602160045260246000fd5b149050919050565b600260009054906101000a900473ffffffffffffffffffffffffffffffffffffffff1673ffffffffffffffffffffffffffffffffffffffff163373ffffffffffffffffffffffffffffffffffffffff16146104cb57600080fd5b60016004600083815260200190815260200160002060040160006101000a81548160ff0219169083600281111561052b577f4e487b7100000000000000000000000000000000000000000000000000000000600052602160045260246000fd5b021790555050565b60006001600281111561056f577f4e487b7100000000000000000000000000000000000000000000000000000000600052602160045260246000fd5b6004600084815260200190815260200160002060040160009054906101000a900460ff1660028111156105cb577f4e487b7100000000000000000000000000000000000000000000000000000000600052602160045260246000fd5b149050919050565b60005481565b6000600354905090565b600080600281111561061e577f4e487b7100000000000000000000000000000000000000000000000000000000600052602160045260246000fd5b6004600084815260200190815260200160002060040160009054906101000a900460ff16600281111561067a577f4e487b7100000000000000000000000000000000000000000000000000000000600052602160045260246000fd5b149050919050565b61068a610f2d565b6040518060c001604052808781526020018673ffffffffffffffffffffffffffffffffffffffff1681526020018573ffffffffffffffffffffffffffffffffffffffff168152602001848152602001836002811115610712577f4e487b7100000000000000000000000000000000000000000000000000000000600052602160045260246000fd5b815260200182815250600460008881526020019081526020016000206000820151816000015560208201518160010160006101000a81548173ffffffffffffffffffffffffffffffffffffffff021916908373ffffffffffffffffffffffffffffffffffffffff16021790555060408201518160020160006101000a81548173ffffffffffffffffffffffffffffffffffffffff021916908373ffffffffffffffffffffffffffffffffffffffff16021790555060608201518160030190805190602001906107e2929190610f49565b5060808201518160040160006101000a81548160ff02191690836002811115610834577f4e487b7100000000000000000000000000000000000000000000000000000000600052602160045260246000fd5b021790555060a0820151816005015590505060058690806001815401808255809150506001900390600052602060002001600090919091909150558373ffffffffffffffffffffffffffffffffffffffff168573ffffffffffffffffffffffffffffffffffffffff16877fda7626415acef4434125fc0ae366575c98484cd92c7dd42b1902f0d82ba6148e846040516108cd919061150c565b60405180910390a4505050505050565b60035481565b600180546108f0906117d0565b80601f016020809104026020016040519081016040528092919081815260200182805461091c906117d0565b80156109695780601f1061093e57610100808354040283529160200191610969565b820191906000526020600020905b81548152906001019060200180831161094c57829003601f168201915b505050505081565b60046020528060005260406000206000915090508060000154908060010160009054906101000a900473ffffffffffffffffffffffffffffffffffffffff16908060020160009054906101000a900473ffffffffffffffffffffffffffffffffffffffff16908060030180546109e6906117d0565b80601f0160208091040260200160405190810160405280929190818152602001828054610a12906117d0565b8015610a5f5780601f10610a3457610100808354040283529160200191610a5f565b820191906000526020600020905b815481529060010190602001808311610a4257829003601f168201915b5050505050908060040160009054906101000a900460ff16908060050154905086565b6060600060035467ffffffffffffffff811115610ac8577f4e487b7100000000000000000000000000000000000000000000000000000000600052604160045260246000fd5b604051908082528060200260200182016040528015610af65781602001602082028036833780820191505090505b50905060005b600354811015610ba35760058181548110610b40577f4e487b7100000000000000000000000000000000000000000000000000000000600052603260045260246000fd5b9060005260206000200154828281518110610b84577f4e487b7100000000000000000000000000000000000000000000000000000000600052603260045260246000fd5b6020026020010181815250508080610b9b90611833565b915050610afc565b506005805480602002602001604051908101604052809291908181526020018280548015610bf057602002820191906000526020600020905b815481526020019060010190808311610bdc575b505050505091505090565b6060600060035467ffffffffffffffff811115610c41577f4e487b7100000000000000000000000000000000000000000000000000000000600052604160045260246000fd5b604051908082528060200260200182016040528015610c7a57816020015b610c67610fcf565b815260200190600190039081610c5f5790505b509050600080600090505b600354811015610f245760058181548110610cc9577f4e487b7100000000000000000000000000000000000000000000000000000000600052603260045260246000fd5b90600052602060002001549150600460008381526020019081526020016000206040518060c0016040529081600082015481526020016001820160009054906101000a900473ffffffffffffffffffffffffffffffffffffffff1673ffffffffffffffffffffffffffffffffffffffff1673ffffffffffffffffffffffffffffffffffffffff1681526020016002820160009054906101000a900473ffffffffffffffffffffffffffffffffffffffff1673ffffffffffffffffffffffffffffffffffffffff1673ffffffffffffffffffffffffffffffffffffffff168152602001600382018054610dba906117d0565b80601f0160208091040260200160405190810160405280929190818152602001828054610de6906117d0565b8015610e335780601f10610e0857610100808354040283529160200191610e33565b820191906000526020600020905b815481529060010190602001808311610e1657829003601f168201915b505050505081526020016004820160009054906101000a900460ff166002811115610e87577f4e487b7100000000000000000000000000000000000000000000000000000000600052602160045260246000fd5b6002811115610ebf577f4e487b7100000000000000000000000000000000000000000000000000000000600052602160045260246000fd5b8152602001600582015481525050838281518110610f06577f4e487b7100000000000000000000000000000000000000000000000000000000600052603260045260246000fd5b60200260200101819052508080610f1c90611833565b915050610c85565b50819250505090565b600160036000828254610f4091906116c1565b92505081905550565b828054610f55906117d0565b90600052602060002090601f016020900481019282610f775760008555610fbe565b82601f10610f9057805160ff1916838001178555610fbe565b82800160010185558215610fbe579182015b82811115610fbd578251825591602001919060010190610fa2565b5b509050610fcb919061106f565b5090565b6040518060c0016040528060008019168152602001600073ffffffffffffffffffffffffffffffffffffffff168152602001600073ffffffffffffffffffffffffffffffffffffffff168152602001606081526020016000600281111561105f577f4e487b7100000000000000000000000000000000000000000000000000000000600052602160045260246000fd5b8152602001600080191681525090565b5b80821115611088576000816000905550600101611070565b5090565b600061109f61109a846115f1565b6115cc565b9050828152602081018484840111156110b757600080fd5b6110c284828561178e565b509392505050565b6000813590506110d98161195d565b92915050565b6000813590506110ee81611974565b92915050565b6000813590506111038161198b565b92915050565b600082601f83011261111a57600080fd5b813561112a84826020860161108c565b91505092915050565b6000813590506111428161199b565b92915050565b60006020828403121561115a57600080fd5b6000611168848285016110df565b91505092915050565b60008060008060008060c0878903121561118a57600080fd5b600061119889828a016110df565b96505060206111a989828a016110ca565b95505060406111ba89828a016110ca565b945050606087013567ffffffffffffffff8111156111d757600080fd5b6111e389828a01611109565b93505060806111f489828a016110f4565b92505060a061120589828a016110df565b9150509295509295509295565b60006020828403121561122457600080fd5b600061123284828501611133565b91505092915050565b60006112478383611367565b60208301905092915050565b600061125f8383611415565b905092915050565b61127081611717565b82525050565b61127f81611717565b82525050565b600061129082611642565b61129a818561167d565b93506112a583611622565b8060005b838110156112d65781516112bd888261123b565b97506112c883611663565b9250506001810190506112a9565b5085935050505092915050565b60006112ee8261164d565b6112f8818561168e565b93508360208202850161130a85611632565b8060005b8581101561134657848403895281516113278582611253565b945061133283611670565b925060208a0199505060018101905061130e565b50829750879550505050505092915050565b61136181611729565b82525050565b61137081611735565b82525050565b61137f81611735565b82525050565b61138e8161177c565b82525050565b61139d8161177c565b82525050565b60006113ae82611658565b6113b8818561169f565b93506113c881856020860161179d565b6113d181611938565b840191505092915050565b60006113e782611658565b6113f181856116b0565b935061140181856020860161179d565b61140a81611938565b840191505092915050565b600060c08301600083015161142d6000860182611367565b5060208301516114406020860182611267565b5060408301516114536040860182611267565b506060830151848203606086015261146b82826113a3565b91505060808301516114806080860182611385565b5060a083015161149360a0860182611367565b508091505092915050565b6114a781611772565b82525050565b600060208201905081810360008301526114c78184611285565b905092915050565b600060208201905081810360008301526114e981846112e3565b905092915050565b60006020820190506115066000830184611358565b92915050565b60006020820190506115216000830184611376565b92915050565b600060c08201905061153c6000830189611376565b6115496020830188611276565b6115566040830187611276565b818103606083015261156881866113dc565b90506115776080830185611394565b61158460a0830184611376565b979650505050505050565b600060208201905081810360008301526115a981846113dc565b905092915050565b60006020820190506115c6600083018461149e565b92915050565b60006115d66115e7565b90506115e28282611802565b919050565b6000604051905090565b600067ffffffffffffffff82111561160c5761160b611909565b5b61161582611938565b9050602081019050919050565b6000819050602082019050919050565b6000819050602082019050919050565b600081519050919050565b600081519050919050565b600081519050919050565b6000602082019050919050565b6000602082019050919050565b600082825260208201905092915050565b600082825260208201905092915050565b600082825260208201905092915050565b600082825260208201905092915050565b60006116cc82611772565b91506116d783611772565b9250827fffffffffffffffffffffffffffffffffffffffffffffffffffffffffffffffff0382111561170c5761170b61187c565b5b828201905092915050565b600061172282611752565b9050919050565b60008115159050919050565b6000819050919050565b600081905061174d82611949565b919050565b600073ffffffffffffffffffffffffffffffffffffffff82169050919050565b6000819050919050565b60006117878261173f565b9050919050565b82818337600083830152505050565b60005b838110156117bb5780820151818401526020810190506117a0565b838111156117ca576000848401525b50505050565b600060028204905060018216806117e857607f821691505b602082108114156117fc576117fb6118da565b5b50919050565b61180b82611938565b810181811067ffffffffffffffff8211171561182a57611829611909565b5b80604052505050565b600061183e82611772565b91507fffffffffffffffffffffffffffffffffffffffffffffffffffffffffffffffff8214156118715761187061187c565b5b600182019050919050565b7f4e487b7100000000000000000000000000000000000000000000000000000000600052601160045260246000fd5b7f4e487b7100000000000000000000000000000000000000000000000000000000600052602160045260246000fd5b7f4e487b7100000000000000000000000000000000000000000000000000000000600052602260045260246000fd5b7f4e487b7100000000000000000000000000000000000000000000000000000000600052604160045260246000fd5b6000601f19601f8301169050919050565b6003811061195a576119596118ab565b5b50565b61196681611717565b811461197157600080fd5b50565b61197d81611735565b811461198857600080fd5b50565b6003811061199857600080fd5b50565b6119a481611772565b81146119af57600080fd5b5056fea264697066735822122075392521e6b06b64026a2e1b39faa7f6ce926a4a64f28d32e751a6d9e619074364736f6c63430008040033",
  "immutableReferences": {},
  "source": "pragma solidity ^0.8.4;\n\ncontract GrantRegistry {\n  // Grant ID - The hash of the grants meetadata\n  bytes32 public grantRegistryId;\n  // Metadata Pointer\n  string public metaPtr;\n\n  // Owner\n  address owner;\n\n  modifier onlyOwner() {\n    require(msg.sender == owner);\n    _;\n  }\n\n  // TODO: Only allow the owner (which is the curator) address to configure the contract\n  // while its in config mode, then switch to active. Once active, the owner can only\n  // close the registry (have a conversation around this approach)\n  constructor(address _owner, bytes32 _grantRegistryId, string memory _metaPtr) {\n    owner = _owner;\n    //state = State.CONFIG;\n    grantRegistryId = _grantRegistryId;\n    metaPtr = _metaPtr;\n  }\n\n  // State\n  enum State { CONFIG, ACTIVE, CLOSED }\n  //State public state;\n\n  // Grant Pointer Object\n  // Mapping from GrantID to set of Owner Address, Payout Address, Metadata Pointer, Replaces Grant (optional)\n  // TODO: Implement safemath for avoiding overflows with ints\n  uint256 public grantCount = 0;\n  mapping(bytes32 => Grant) public grants;\n  bytes32[] public grantIds;\n\n  struct Grant {\n    bytes32 id;\n    address owner;\n    address payout;\n    string metaPtr;\n    State state;\n    bytes32 replaces;\n  }\n\n  function activate(bytes32 _id)\n    onlyOwner\n    external\n  {\n    grants[_id].state = State.ACTIVE;\n  }\n\n  function closed(bytes32 _id) public onlyOwner {\n    grants[_id].state = State.CLOSED;\n  }\n\n  function isConfig(bytes32 _id) public view returns(bool) {\n    return grants[_id].state == State.CONFIG;\n  }\n\n  function isActive(bytes32 _id) public view returns(bool) {\n    return grants[_id].state == State.ACTIVE;\n  }\n\n  function isClosed(bytes32 _id) public view returns(bool) {\n    return grants[_id].state == State.CLOSED;\n  }\n\n  function getGrantCount() public view returns(uint256) {\n    return grantCount;\n  }\n\n  function getAllGrantIds() public view returns (bytes32[] memory) {\n    bytes32[] memory ret = new bytes32[](grantCount);\n    for (uint i = 0; i < grantCount; i++) {\n      ret[i] = grantIds[i];\n    }\n    return grantIds;\n  }\n\n  function getAllGrants() public view returns (Grant[] memory) {\n    Grant[] memory ret = new Grant[](grantCount);\n    bytes32 grantId;\n    for (uint i = 0; i < grantCount; i++) {\n      grantId = grantIds[i];\n      ret[i] = grants[grantId];\n    }\n    return ret;\n  }\n\n/*\n  function getAllGrants() public view returns (myGrant[] memory) {\n    grantCount = getGrantCount();\n    myGrant[] memory ret = new myGrant[](grantCount);\n    for (uint i = 0; i < grantCount; i++) {\n      ret[i] = grants[i];\n    }\n    return ret;\n  }\n*/\n\n  // Events\n  // When a great is created\n  event NewGrant(bytes32 indexed _id, address indexed _owner, address indexed _payout, bytes32 _replaces);\n  // When a grant receives a donation (directly to a grant, or from contract)\n  // When a grant changes statuses\n\n  // _mint function\n  // Allow creation of a grant and setting the initial parameters\n  function _mint(bytes32 _id, address _owner, address _payout, string memory _metaPtr, State _state, bytes32 _replaces) public {\n    incrementGrantCount();\n    grants[_id] = Grant(_id, _owner, _payout, _metaPtr, _state, _replaces);\n    grantIds.push(_id);\n    // Emit an event here for grant minted\n    emit NewGrant(_id, _owner, _payout, _replaces);\n  }\n\n  function incrementGrantCount() internal {\n    grantCount += 1;\n  }\n}\n",
  "sourcePath": "/Users/philip/github/dcgrants/contracts/GrantRegistry.sol",
  "compiler": {
    "name": "solc",
    "version": "0.8.4+commit.c7e474f2.Emscripten.clang"
  },
  "schemaVersion": "3.4.1",
  "updatedAt": "2021-06-30T14:21:35.404Z",
  "networkType": "ethereum",
  "devdoc": {
    "kind": "dev",
    "methods": {},
    "version": 1
  },
  "userdoc": {
    "kind": "user",
    "methods": {},
    "version": 1
  }
}