{
  "contractName": "GrantRegistry",
  "abi": [
    {
      "inputs": [
        {
          "internalType": "address",
          "name": "_owner",
          "type": "address"
        },
        {
          "internalType": "bytes32",
          "name": "_grantRegistryId",
          "type": "bytes32"
        },
        {
          "internalType": "string",
          "name": "_metaPtr",
          "type": "string"
        }
      ],
      "stateMutability": "nonpayable",
      "type": "constructor"
    },
    {
      "anonymous": false,
      "inputs": [
        {
          "indexed": true,
          "internalType": "bytes32",
          "name": "_id",
          "type": "bytes32"
        },
        {
          "indexed": true,
          "internalType": "address",
          "name": "_owner",
          "type": "address"
        },
        {
          "indexed": true,
          "internalType": "address",
          "name": "_payout",
          "type": "address"
        },
        {
          "indexed": false,
          "internalType": "bytes32",
          "name": "_replaces",
          "type": "bytes32"
        }
      ],
      "name": "NewGrant",
      "type": "event"
    },
    {
      "inputs": [],
      "name": "grantCount",
      "outputs": [
        {
          "internalType": "uint256",
          "name": "",
          "type": "uint256"
        }
      ],
      "stateMutability": "view",
      "type": "function",
      "constant": true
    },
    {
      "inputs": [],
      "name": "grantRegistryId",
      "outputs": [
        {
          "internalType": "bytes32",
          "name": "",
          "type": "bytes32"
        }
      ],
      "stateMutability": "view",
      "type": "function",
      "constant": true
    },
    {
      "inputs": [
        {
          "internalType": "bytes32",
          "name": "",
          "type": "bytes32"
        }
      ],
      "name": "grants",
      "outputs": [
        {
          "internalType": "bytes32",
          "name": "id",
          "type": "bytes32"
        },
        {
          "internalType": "address",
          "name": "owner",
          "type": "address"
        },
        {
          "internalType": "address",
          "name": "payout",
          "type": "address"
        },
        {
          "internalType": "string",
          "name": "metaPtr",
          "type": "string"
        },
        {
          "internalType": "enum GrantRegistry.State",
          "name": "state",
          "type": "uint8"
        },
        {
          "internalType": "bytes32",
          "name": "replaces",
          "type": "bytes32"
        }
      ],
      "stateMutability": "view",
      "type": "function",
      "constant": true
    },
    {
      "inputs": [],
      "name": "metaPtr",
      "outputs": [
        {
          "internalType": "string",
          "name": "",
          "type": "string"
        }
      ],
      "stateMutability": "view",
      "type": "function",
      "constant": true
    },
    {
      "inputs": [
        {
          "internalType": "bytes32",
          "name": "_id",
          "type": "bytes32"
        }
      ],
      "name": "activate",
      "outputs": [],
      "stateMutability": "nonpayable",
      "type": "function"
    },
    {
      "inputs": [
        {
          "internalType": "bytes32",
          "name": "_id",
          "type": "bytes32"
        }
      ],
      "name": "closed",
      "outputs": [],
      "stateMutability": "nonpayable",
      "type": "function"
    },
    {
      "inputs": [
        {
          "internalType": "bytes32",
          "name": "_id",
          "type": "bytes32"
        }
      ],
      "name": "isConfig",
      "outputs": [
        {
          "internalType": "bool",
          "name": "",
          "type": "bool"
        }
      ],
      "stateMutability": "view",
      "type": "function",
      "constant": true
    },
    {
      "inputs": [
        {
          "internalType": "bytes32",
          "name": "_id",
          "type": "bytes32"
        }
      ],
      "name": "isActive",
      "outputs": [
        {
          "internalType": "bool",
          "name": "",
          "type": "bool"
        }
      ],
      "stateMutability": "view",
      "type": "function",
      "constant": true
    },
    {
      "inputs": [
        {
          "internalType": "bytes32",
          "name": "_id",
          "type": "bytes32"
        }
      ],
      "name": "isClosed",
      "outputs": [
        {
          "internalType": "bool",
          "name": "",
          "type": "bool"
        }
      ],
      "stateMutability": "view",
      "type": "function",
      "constant": true
    },
    {
      "inputs": [],
      "name": "getGrantCount",
      "outputs": [
        {
          "internalType": "uint256",
          "name": "",
          "type": "uint256"
        }
      ],
      "stateMutability": "view",
      "type": "function",
      "constant": true
    },
    {
      "inputs": [
        {
          "internalType": "bytes32",
          "name": "_id",
          "type": "bytes32"
        },
        {
          "internalType": "address",
          "name": "_owner",
          "type": "address"
        },
        {
          "internalType": "address",
          "name": "_payout",
          "type": "address"
        },
        {
          "internalType": "string",
          "name": "_metaPtr",
          "type": "string"
        },
        {
          "internalType": "enum GrantRegistry.State",
          "name": "_state",
          "type": "uint8"
        },
        {
          "internalType": "bytes32",
          "name": "_replaces",
          "type": "bytes32"
        }
      ],
      "name": "_mint",
      "outputs": [],
      "stateMutability": "nonpayable",
      "type": "function"
    }
  ],
  "bytecode": "0x608060405260006003553480156200001657600080fd5b50604051620014a7380380620014a783398181016040528101906200003c9190620001f6565b82600260006101000a81548173ffffffffffffffffffffffffffffffffffffffff021916908373ffffffffffffffffffffffffffffffffffffffff1602179055508160008190555080600190805190602001906200009c929190620000a6565b5050505062000447565b828054620000b49062000338565b90600052602060002090601f016020900481019282620000d8576000855562000124565b82601f10620000f357805160ff191683800117855562000124565b8280016001018555821562000124579182015b828111156200012357825182559160200191906001019062000106565b5b50905062000133919062000137565b5090565b5b808211156200015257600081600090555060010162000138565b5090565b60006200016d62000167846200028e565b62000265565b9050828152602081018484840111156200018657600080fd5b6200019384828562000302565b509392505050565b600081519050620001ac8162000413565b92915050565b600081519050620001c3816200042d565b92915050565b600082601f830112620001db57600080fd5b8151620001ed84826020860162000156565b91505092915050565b6000806000606084860312156200020c57600080fd5b60006200021c868287016200019b565b93505060206200022f86828701620001b2565b925050604084015167ffffffffffffffff8111156200024d57600080fd5b6200025b86828701620001c9565b9150509250925092565b60006200027162000284565b90506200027f82826200036e565b919050565b6000604051905090565b600067ffffffffffffffff821115620002ac57620002ab620003d3565b5b620002b78262000402565b9050602081019050919050565b6000620002d182620002e2565b9050919050565b6000819050919050565b600073ffffffffffffffffffffffffffffffffffffffff82169050919050565b60005b838110156200032257808201518184015260208101905062000305565b8381111562000332576000848401525b50505050565b600060028204905060018216806200035157607f821691505b60208210811415620003685762000367620003a4565b5b50919050565b620003798262000402565b810181811067ffffffffffffffff821117156200039b576200039a620003d3565b5b80604052505050565b7f4e487b7100000000000000000000000000000000000000000000000000000000600052602260045260246000fd5b7f4e487b7100000000000000000000000000000000000000000000000000000000600052604160045260246000fd5b6000601f19601f8301169050919050565b6200041e81620002c4565b81146200042a57600080fd5b50565b6200043881620002d8565b81146200044457600080fd5b50565b61105080620004576000396000f3fe608060405234801561001057600080fd5b50600436106100a95760003560e01c80637c1b6afe116100715780637c1b6afe1461016457806394e90e691461018257806395eb34f4146101b2578063cab42672146101ce578063d0e363cb146101ec578063de1f89801461020a576100a9565b80633fb8c56d146100ae57806340aa1f40146100ca57806359db6e85146100fa5780635c36901c1461011657806376ea3e7614610146575b600080fd5b6100c860048036038101906100c39190610aee565b61023f565b005b6100e460048036038101906100df9190610aee565b610301565b6040516100f19190610c3c565b60405180910390f35b610114600480360381019061010f9190610aee565b6103a0565b005b610130600480360381019061012b9190610aee565b610462565b60405161013d9190610c3c565b60405180910390f35b61014e610502565b60405161015b9190610c57565b60405180910390f35b61016c610508565b6040516101799190610cfc565b60405180910390f35b61019c60048036038101906101979190610aee565b610512565b6040516101a99190610c3c565b60405180910390f35b6101cc60048036038101906101c79190610b17565b6105b1565b005b6101d66107e3565b6040516101e39190610cfc565b60405180910390f35b6101f46107e9565b6040516102019190610cda565b60405180910390f35b610224600480360381019061021f9190610aee565b610877565b60405161023696959493929190610c72565b60405180910390f35b600260009054906101000a900473ffffffffffffffffffffffffffffffffffffffff1673ffffffffffffffffffffffffffffffffffffffff163373ffffffffffffffffffffffffffffffffffffffff161461029957600080fd5b60026004600083815260200190815260200160002060040160006101000a81548160ff021916908360028111156102f9577f4e487b7100000000000000000000000000000000000000000000000000000000600052602160045260246000fd5b021790555050565b600060028081111561033c577f4e487b7100000000000000000000000000000000000000000000000000000000600052602160045260246000fd5b6004600084815260200190815260200160002060040160009054906101000a900460ff166002811115610398577f4e487b7100000000000000000000000000000000000000000000000000000000600052602160045260246000fd5b149050919050565b600260009054906101000a900473ffffffffffffffffffffffffffffffffffffffff1673ffffffffffffffffffffffffffffffffffffffff163373ffffffffffffffffffffffffffffffffffffffff16146103fa57600080fd5b60016004600083815260200190815260200160002060040160006101000a81548160ff0219169083600281111561045a577f4e487b7100000000000000000000000000000000000000000000000000000000600052602160045260246000fd5b021790555050565b60006001600281111561049e577f4e487b7100000000000000000000000000000000000000000000000000000000600052602160045260246000fd5b6004600084815260200190815260200160002060040160009054906101000a900460ff1660028111156104fa577f4e487b7100000000000000000000000000000000000000000000000000000000600052602160045260246000fd5b149050919050565b60005481565b6000600354905090565b600080600281111561054d577f4e487b7100000000000000000000000000000000000000000000000000000000600052602160045260246000fd5b6004600084815260200190815260200160002060040160009054906101000a900460ff1660028111156105a9577f4e487b7100000000000000000000000000000000000000000000000000000000600052602160045260246000fd5b149050919050565b6105b9610988565b6040518060c001604052808781526020018673ffffffffffffffffffffffffffffffffffffffff1681526020018573ffffffffffffffffffffffffffffffffffffffff168152602001848152602001836002811115610641577f4e487b7100000000000000000000000000000000000000000000000000000000600052602160045260246000fd5b815260200182815250600460008881526020019081526020016000206000820151816000015560208201518160010160006101000a81548173ffffffffffffffffffffffffffffffffffffffff021916908373ffffffffffffffffffffffffffffffffffffffff16021790555060408201518160020160006101000a81548173ffffffffffffffffffffffffffffffffffffffff021916908373ffffffffffffffffffffffffffffffffffffffff16021790555060608201518160030190805190602001906107119291906109a4565b5060808201518160040160006101000a81548160ff02191690836002811115610763577f4e487b7100000000000000000000000000000000000000000000000000000000600052602160045260246000fd5b021790555060a082015181600501559050508373ffffffffffffffffffffffffffffffffffffffff168573ffffffffffffffffffffffffffffffffffffffff16877fda7626415acef4434125fc0ae366575c98484cd92c7dd42b1902f0d82ba6148e846040516107d39190610c57565b60405180910390a4505050505050565b60035481565b600180546107f690610e98565b80601f016020809104026020016040519081016040528092919081815260200182805461082290610e98565b801561086f5780601f106108445761010080835404028352916020019161086f565b820191906000526020600020905b81548152906001019060200180831161085257829003601f168201915b505050505081565b60046020528060005260406000206000915090508060000154908060010160009054906101000a900473ffffffffffffffffffffffffffffffffffffffff16908060020160009054906101000a900473ffffffffffffffffffffffffffffffffffffffff16908060030180546108ec90610e98565b80601f016020809104026020016040519081016040528092919081815260200182805461091890610e98565b80156109655780601f1061093a57610100808354040283529160200191610965565b820191906000526020600020905b81548152906001019060200180831161094857829003601f168201915b5050505050908060040160009054906101000a900460ff16908060050154905086565b60016003600082825461099b9190610d89565b92505081905550565b8280546109b090610e98565b90600052602060002090601f0160209004810192826109d25760008555610a19565b82601f106109eb57805160ff1916838001178555610a19565b82800160010185558215610a19579182015b82811115610a185782518255916020019190600101906109fd565b5b509050610a269190610a2a565b5090565b5b80821115610a43576000816000905550600101610a2b565b5090565b6000610a5a610a5584610d3c565b610d17565b905082815260208101848484011115610a7257600080fd5b610a7d848285610e56565b509392505050565b600081359050610a9481610fdc565b92915050565b600081359050610aa981610ff3565b92915050565b600081359050610abe8161100a565b92915050565b600082601f830112610ad557600080fd5b8135610ae5848260208601610a47565b91505092915050565b600060208284031215610b0057600080fd5b6000610b0e84828501610a9a565b91505092915050565b60008060008060008060c08789031215610b3057600080fd5b6000610b3e89828a01610a9a565b9650506020610b4f89828a01610a85565b9550506040610b6089828a01610a85565b945050606087013567ffffffffffffffff811115610b7d57600080fd5b610b8989828a01610ac4565b9350506080610b9a89828a01610aaf565b92505060a0610bab89828a01610a9a565b9150509295509295509295565b610bc181610ddf565b82525050565b610bd081610df1565b82525050565b610bdf81610dfd565b82525050565b610bee81610e44565b82525050565b6000610bff82610d6d565b610c098185610d78565b9350610c19818560208601610e65565b610c2281610fb7565b840191505092915050565b610c3681610e3a565b82525050565b6000602082019050610c516000830184610bc7565b92915050565b6000602082019050610c6c6000830184610bd6565b92915050565b600060c082019050610c876000830189610bd6565b610c946020830188610bb8565b610ca16040830187610bb8565b8181036060830152610cb38186610bf4565b9050610cc26080830185610be5565b610ccf60a0830184610bd6565b979650505050505050565b60006020820190508181036000830152610cf48184610bf4565b905092915050565b6000602082019050610d116000830184610c2d565b92915050565b6000610d21610d32565b9050610d2d8282610eca565b919050565b6000604051905090565b600067ffffffffffffffff821115610d5757610d56610f88565b5b610d6082610fb7565b9050602081019050919050565b600081519050919050565b600082825260208201905092915050565b6000610d9482610e3a565b9150610d9f83610e3a565b9250827fffffffffffffffffffffffffffffffffffffffffffffffffffffffffffffffff03821115610dd457610dd3610efb565b5b828201905092915050565b6000610dea82610e1a565b9050919050565b60008115159050919050565b6000819050919050565b6000819050610e1582610fc8565b919050565b600073ffffffffffffffffffffffffffffffffffffffff82169050919050565b6000819050919050565b6000610e4f82610e07565b9050919050565b82818337600083830152505050565b60005b83811015610e83578082015181840152602081019050610e68565b83811115610e92576000848401525b50505050565b60006002820490506001821680610eb057607f821691505b60208210811415610ec457610ec3610f59565b5b50919050565b610ed382610fb7565b810181811067ffffffffffffffff82111715610ef257610ef1610f88565b5b80604052505050565b7f4e487b7100000000000000000000000000000000000000000000000000000000600052601160045260246000fd5b7f4e487b7100000000000000000000000000000000000000000000000000000000600052602160045260246000fd5b7f4e487b7100000000000000000000000000000000000000000000000000000000600052602260045260246000fd5b7f4e487b7100000000000000000000000000000000000000000000000000000000600052604160045260246000fd5b6000601f19601f8301169050919050565b60038110610fd957610fd8610f2a565b5b50565b610fe581610ddf565b8114610ff057600080fd5b50565b610ffc81610dfd565b811461100757600080fd5b50565b6003811061101757600080fd5b5056fea2646970667358221220599d5ef8cd2581c5990db7843d8fdd784942c9fa9b91728e84bbcb863522718a64736f6c63430008040033",
  "immutableReferences": {},
  "source": "pragma solidity ^0.8.4;\n\ncontract GrantRegistry {\n  // Grant ID - The hash of the grants meetadata\n  bytes32 public grantRegistryId;\n  // Metadata Pointer\n  string public metaPtr;\n\n  // Owner\n  address owner;\n\n  modifier onlyOwner() {\n    require(msg.sender == owner);\n    _;\n  }\n\n  // TODO: Only allow the owner (which is the curator) address to configure the contract\n  // while its in config mode, then switch to active. Once active, the owner can only\n  // close the registry (have a conversation around this approach)\n  constructor(address _owner, bytes32 _grantRegistryId, string memory _metaPtr) {\n    owner = _owner;\n    //state = State.CONFIG;\n    grantRegistryId = _grantRegistryId;\n    metaPtr = _metaPtr;\n  }\n\n  // State\n  enum State { CONFIG, ACTIVE, CLOSED }\n  //State public state;\n\n  // Grant Pointer Object\n  // Mapping from GrantID to set of Owner Address, Payout Address, Metadata Pointer, Replaces Grant (optional)\n  // TODO: Implement safemath for avoiding overflows with ints\n  uint256 public grantCount = 0;\n  mapping(bytes32 => Grant) public grants;\n\n  struct Grant {\n    bytes32 id;\n    address owner;\n    address payout;\n    string metaPtr;\n    State state;\n    bytes32 replaces;\n  }\n\n  function activate(bytes32 _id)\n    onlyOwner\n    external\n  {\n    grants[_id].state = State.ACTIVE;\n  }\n\n  function closed(bytes32 _id) public onlyOwner {\n    grants[_id].state = State.CLOSED;\n  }\n\n  function isConfig(bytes32 _id) public view returns(bool) {\n    return grants[_id].state == State.CONFIG;\n  }\n\n  function isActive(bytes32 _id) public view returns(bool) {\n    return grants[_id].state == State.ACTIVE;\n  }\n\n  function isClosed(bytes32 _id) public view returns(bool) {\n    return grants[_id].state == State.CLOSED;\n  }\n\n  function getGrantCount() public view returns(uint256) {\n    return grantCount;\n  }\n\n  // Events\n  // When a great is created\n  event NewGrant(bytes32 indexed _id, address indexed _owner, address indexed _payout, bytes32 _replaces);\n  // When a grant receives a donation (directly to a grant, or from contract)\n  // When a grant changes statuses\n\n  // _mint function\n  // Allow creation of a grant and setting the initial parameters\n  function _mint(bytes32 _id, address _owner, address _payout, string memory _metaPtr, State _state, bytes32 _replaces) public {\n    incrementGrantCount();\n    grants[_id] = Grant(_id, _owner, _payout, _metaPtr, _state, _replaces);\n    // Emit an event here for grant minted\n    emit NewGrant(_id, _owner, _payout, _replaces);\n  }\n\n  function incrementGrantCount() internal {\n    grantCount += 1;\n  }\n}\n",
  "sourcePath": "/Users/philip/github/dcgrants/contracts/GrantRegistry.sol",
  "compiler": {
    "name": "solc",
    "version": "0.8.4+commit.c7e474f2.Emscripten.clang"
  },
  "schemaVersion": "3.4.1",
  "updatedAt": "2021-06-24T17:23:48.536Z",
  "networkType": "ethereum",
  "devdoc": {
    "kind": "dev",
    "methods": {},
    "version": 1
  },
  "userdoc": {
    "kind": "user",
    "methods": {},
    "version": 1
  }
}