{
  "contractName": "GrantRounds",
  "abi": [
    {
      "inputs": [
        {
          "internalType": "address",
          "name": "_owner",
          "type": "address"
        },
        {
          "internalType": "bytes32",
          "name": "_grantRoundsId",
          "type": "bytes32"
        },
        {
          "internalType": "string",
          "name": "_metaPtr",
          "type": "string"
        }
      ],
      "stateMutability": "nonpayable",
      "type": "constructor"
    },
    {
      "inputs": [],
      "name": "grantRoundCount",
      "outputs": [
        {
          "internalType": "uint256",
          "name": "",
          "type": "uint256"
        }
      ],
      "stateMutability": "view",
      "type": "function",
      "constant": true
    },
    {
      "inputs": [
        {
          "internalType": "bytes32",
          "name": "",
          "type": "bytes32"
        }
      ],
      "name": "grantRounds",
      "outputs": [
        {
          "internalType": "bytes32",
          "name": "id",
          "type": "bytes32"
        },
        {
          "internalType": "address",
          "name": "owner",
          "type": "address"
        },
        {
          "internalType": "bytes32",
          "name": "root",
          "type": "bytes32"
        }
      ],
      "stateMutability": "view",
      "type": "function",
      "constant": true
    },
    {
      "inputs": [],
      "name": "grantRoundsId",
      "outputs": [
        {
          "internalType": "bytes32",
          "name": "",
          "type": "bytes32"
        }
      ],
      "stateMutability": "view",
      "type": "function",
      "constant": true
    },
    {
      "inputs": [],
      "name": "metaPtr",
      "outputs": [
        {
          "internalType": "string",
          "name": "",
          "type": "string"
        }
      ],
      "stateMutability": "view",
      "type": "function",
      "constant": true
    }
  ],
  "bytecode": "0x608060405260006003553480156200001657600080fd5b506040516200089f3803806200089f83398181016040528101906200003c9190620001f6565b82600260006101000a81548173ffffffffffffffffffffffffffffffffffffffff021916908373ffffffffffffffffffffffffffffffffffffffff1602179055508160008190555080600190805190602001906200009c929190620000a6565b5050505062000447565b828054620000b49062000338565b90600052602060002090601f016020900481019282620000d8576000855562000124565b82601f10620000f357805160ff191683800117855562000124565b8280016001018555821562000124579182015b828111156200012357825182559160200191906001019062000106565b5b50905062000133919062000137565b5090565b5b808211156200015257600081600090555060010162000138565b5090565b60006200016d62000167846200028e565b62000265565b9050828152602081018484840111156200018657600080fd5b6200019384828562000302565b509392505050565b600081519050620001ac8162000413565b92915050565b600081519050620001c3816200042d565b92915050565b600082601f830112620001db57600080fd5b8151620001ed84826020860162000156565b91505092915050565b6000806000606084860312156200020c57600080fd5b60006200021c868287016200019b565b93505060206200022f86828701620001b2565b925050604084015167ffffffffffffffff8111156200024d57600080fd5b6200025b86828701620001c9565b9150509250925092565b60006200027162000284565b90506200027f82826200036e565b919050565b6000604051905090565b600067ffffffffffffffff821115620002ac57620002ab620003d3565b5b620002b78262000402565b9050602081019050919050565b6000620002d182620002e2565b9050919050565b6000819050919050565b600073ffffffffffffffffffffffffffffffffffffffff82169050919050565b60005b838110156200032257808201518184015260208101905062000305565b8381111562000332576000848401525b50505050565b600060028204905060018216806200035157607f821691505b60208210811415620003685762000367620003a4565b5b50919050565b620003798262000402565b810181811067ffffffffffffffff821117156200039b576200039a620003d3565b5b80604052505050565b7f4e487b7100000000000000000000000000000000000000000000000000000000600052602260045260246000fd5b7f4e487b7100000000000000000000000000000000000000000000000000000000600052604160045260246000fd5b6000601f19601f8301169050919050565b6200041e81620002c4565b81146200042a57600080fd5b50565b6200043881620002d8565b81146200044457600080fd5b50565b61044880620004576000396000f3fe608060405234801561001057600080fd5b506004361061004c5760003560e01c80630eeb93c81461005157806398b4c69914610083578063c1e68378146100a1578063d0e363cb146100bf575b600080fd5b61006b600480360381019061006691906101d6565b6100dd565b60405161007a93929190610280565b60405180910390f35b61008b610127565b6040516100989190610265565b60405180910390f35b6100a961012d565b6040516100b691906102d9565b60405180910390f35b6100c7610133565b6040516100d491906102b7565b60405180910390f35b60046020528060005260406000206000915090508060000154908060010160009054906101000a900473ffffffffffffffffffffffffffffffffffffffff16908060030154905083565b60005481565b60035481565b6001805461014090610389565b80601f016020809104026020016040519081016040528092919081815260200182805461016c90610389565b80156101b95780601f1061018e576101008083540402835291602001916101b9565b820191906000526020600020905b81548152906001019060200180831161019c57829003601f168201915b505050505081565b6000813590506101d0816103fb565b92915050565b6000602082840312156101e857600080fd5b60006101f6848285016101c1565b91505092915050565b61020881610310565b82525050565b61021781610322565b82525050565b6000610228826102f4565b61023281856102ff565b9350610242818560208601610356565b61024b816103ea565b840191505092915050565b61025f8161034c565b82525050565b600060208201905061027a600083018461020e565b92915050565b6000606082019050610295600083018661020e565b6102a260208301856101ff565b6102af604083018461020e565b949350505050565b600060208201905081810360008301526102d1818461021d565b905092915050565b60006020820190506102ee6000830184610256565b92915050565b600081519050919050565b600082825260208201905092915050565b600061031b8261032c565b9050919050565b6000819050919050565b600073ffffffffffffffffffffffffffffffffffffffff82169050919050565b6000819050919050565b60005b83811015610374578082015181840152602081019050610359565b83811115610383576000848401525b50505050565b600060028204905060018216806103a157607f821691505b602082108114156103b5576103b46103bb565b5b50919050565b7f4e487b7100000000000000000000000000000000000000000000000000000000600052602260045260246000fd5b6000601f19601f8301169050919050565b61040481610322565b811461040f57600080fd5b5056fea264697066735822122059022f7101d8a1dd02187ab23ce44183cc5c5b61c6567795aec6e40798b09e6264736f6c63430008040033",
  "immutableReferences": {},
  "source": "pragma solidity ^0.8.4;\n\ncontract GrantRounds {\n  // Grant Round ID - The hash of the grant round metadata\n  bytes32 public grantRoundsId;\n  // Metadata Pointer\n  string public metaPtr;\n\n  // Owner\n  address owner;\n\n  modifier onlyOwner() {\n    require(msg.sender == owner);\n    _;\n  }\n\n  constructor(address _owner, bytes32 _grantRoundsId, string memory _metaPtr) {\n    owner = _owner;\n    grantRoundsId = _grantRoundsId;\n    metaPtr = _metaPtr;\n  }\n\n  // State\n  enum State { CONFIG, ACTIVE, CLAIM, CLOSED }\n\n  // Events\n  // When a Grant Round is created\n  // When a donation is made to a Grant\n\n  uint256 public grantRoundCount = 0;\n  mapping(bytes32 => GrantRound) public grantRounds;\n\n  struct GrantRound {\n    bytes32 id;\n    address owner;\n\n    bytes[] proof;\n    bytes32 root;\n  }\n}\n",
  "sourcePath": "/Users/philip/github/dcgrants/contracts/GrantRounds.sol",
  "compiler": {
    "name": "solc",
    "version": "0.8.4+commit.c7e474f2.Emscripten.clang"
  },
  "schemaVersion": "3.4.1",
  "updatedAt": "2021-07-07T15:06:51.972Z",
  "networkType": "ethereum",
  "devdoc": {
    "kind": "dev",
    "methods": {},
    "version": 1
  },
  "userdoc": {
    "kind": "user",
    "methods": {},
    "version": 1
  }
}